{
  "contractName": "MetaCoin",
  "abi": [
    {
      "constant": true,
      "inputs": [
        {
          "name": "",
          "type": "uint256"
        }
      ],
      "name": "CAs",
      "outputs": [
        {
          "name": "",
          "type": "address"
        }
      ],
      "payable": false,
      "stateMutability": "view",
      "type": "function"
    },
    {
      "constant": true,
      "inputs": [
        {
          "name": "",
          "type": "uint256"
        }
      ],
      "name": "certusers",
      "outputs": [
        {
          "name": "username",
          "type": "string"
        },
        {
          "name": "identityId",
          "type": "string"
        },
        {
          "name": "certnumber",
          "type": "string"
        },
        {
          "name": "orgname",
          "type": "string"
        },
        {
          "name": "hashstr",
          "type": "string"
        },
        {
          "name": "useraddress",
          "type": "address"
        },
        {
          "name": "CA",
          "type": "string"
        },
        {
          "name": "CAAddress",
          "type": "address"
        },
        {
          "name": "userstate",
          "type": "uint256"
        },
        {
          "name": "readyTime",
          "type": "uint256"
        }
      ],
      "payable": false,
      "stateMutability": "view",
      "type": "function"
    },
    {
      "constant": true,
      "inputs": [],
      "name": "owner",
      "outputs": [
        {
          "name": "",
          "type": "address"
        }
      ],
      "payable": false,
      "stateMutability": "view",
      "type": "function"
    },
    {
      "constant": false,
      "inputs": [
        {
          "name": "newOwner",
          "type": "address"
        }
      ],
      "name": "transferOwnership",
      "outputs": [],
      "payable": false,
      "stateMutability": "nonpayable",
      "type": "function"
    },
    {
      "inputs": [],
      "payable": false,
      "stateMutability": "nonpayable",
      "type": "constructor"
    },
    {
      "anonymous": false,
      "inputs": [
        {
          "indexed": true,
          "name": "_from",
          "type": "address"
        },
        {
          "indexed": true,
          "name": "_to",
          "type": "address"
        },
        {
          "indexed": false,
          "name": "_value",
          "type": "uint256"
        }
      ],
      "name": "Transfer",
      "type": "event"
    },
    {
      "anonymous": false,
      "inputs": [
        {
          "indexed": true,
          "name": "userAddress",
          "type": "address"
        },
        {
          "indexed": true,
          "name": "certIndex",
          "type": "uint256"
        }
      ],
      "name": "CreateCertUser",
      "type": "event"
    },
    {
      "anonymous": false,
      "inputs": [
        {
          "indexed": true,
          "name": "previousOwner",
          "type": "address"
        },
        {
          "indexed": true,
          "name": "newOwner",
          "type": "address"
        }
      ],
      "name": "OwnershipTransferred",
      "type": "event"
    },
    {
      "constant": false,
      "inputs": [],
      "name": "addDefaultCertUsers",
      "outputs": [],
      "payable": false,
      "stateMutability": "nonpayable",
      "type": "function"
    },
    {
      "constant": false,
      "inputs": [
        {
          "name": "receiver",
          "type": "address"
        },
        {
          "name": "amount",
          "type": "uint256"
        }
      ],
      "name": "sendCoin",
      "outputs": [
        {
          "name": "sufficient",
          "type": "bool"
        }
      ],
      "payable": false,
      "stateMutability": "nonpayable",
      "type": "function"
    },
    {
      "constant": true,
      "inputs": [
        {
          "name": "addr",
          "type": "address"
        }
      ],
      "name": "getBalanceInEth",
      "outputs": [
        {
          "name": "",
          "type": "uint256"
        }
      ],
      "payable": false,
      "stateMutability": "view",
      "type": "function"
    },
    {
      "constant": true,
      "inputs": [
        {
          "name": "addr",
          "type": "address"
        }
      ],
      "name": "getBalance",
      "outputs": [
        {
          "name": "",
          "type": "uint256"
        }
      ],
      "payable": false,
      "stateMutability": "view",
      "type": "function"
    },
    {
      "constant": true,
      "inputs": [],
      "name": "getCertUserFirst",
      "outputs": [
        {
          "name": "",
          "type": "string"
        }
      ],
      "payable": false,
      "stateMutability": "view",
      "type": "function"
    },
    {
      "constant": false,
      "inputs": [
        {
          "name": "CAAddress",
          "type": "address"
        }
      ],
      "name": "addCA",
      "outputs": [
        {
          "name": "CAIndex",
          "type": "uint256"
        },
        {
          "name": "error",
          "type": "bool"
        }
      ],
      "payable": true,
      "stateMutability": "payable",
      "type": "function"
    },
    {
      "constant": true,
      "inputs": [
        {
          "name": "CAAddress",
          "type": "address"
        }
      ],
      "name": "getCAByAddress",
      "outputs": [
        {
          "name": "CAIndex",
          "type": "uint256"
        }
      ],
      "payable": false,
      "stateMutability": "view",
      "type": "function"
    },
    {
      "constant": false,
      "inputs": [
        {
          "name": "CAAddress",
          "type": "address"
        }
      ],
      "name": "deleteCA",
      "outputs": [
        {
          "name": "CAIndex",
          "type": "uint256"
        }
      ],
      "payable": true,
      "stateMutability": "payable",
      "type": "function"
    },
    {
      "constant": false,
      "inputs": [
        {
          "name": "_username",
          "type": "string"
        },
        {
          "name": "_identityId",
          "type": "string"
        },
        {
          "name": "_certnumber",
          "type": "string"
        },
        {
          "name": "_orgname",
          "type": "string"
        },
        {
          "name": "_hashstr",
          "type": "string"
        },
        {
          "name": "_useraddress",
          "type": "address"
        },
        {
          "name": "_CA",
          "type": "string"
        },
        {
          "name": "_CAAddress",
          "type": "address"
        }
      ],
      "name": "createCertUser",
      "outputs": [
        {
          "name": "",
          "type": "string"
        }
      ],
      "payable": true,
      "stateMutability": "payable",
      "type": "function"
    },
    {
      "constant": true,
      "inputs": [],
      "name": "_getCertuses",
      "outputs": [
        {
          "components": [
            {
              "name": "username",
              "type": "string"
            },
            {
              "name": "identityId",
              "type": "string"
            },
            {
              "name": "certnumber",
              "type": "string"
            },
            {
              "name": "orgname",
              "type": "string"
            },
            {
              "name": "hashstr",
              "type": "string"
            },
            {
              "name": "useraddress",
              "type": "address"
            },
            {
              "name": "CA",
              "type": "string"
            },
            {
              "name": "CAAddress",
              "type": "address"
            },
            {
              "name": "userstate",
              "type": "uint256"
            },
            {
              "name": "readyTime",
              "type": "uint256"
            }
          ],
          "name": "",
          "type": "tuple[]"
        }
      ],
      "payable": false,
      "stateMutability": "view",
      "type": "function"
    },
    {
      "constant": true,
      "inputs": [
        {
          "name": "_useraddress",
          "type": "address"
        }
      ],
      "name": "getArrayIndex",
      "outputs": [
        {
          "name": "rtn",
          "type": "uint256[]"
        }
      ],
      "payable": false,
      "stateMutability": "view",
      "type": "function"
    },
    {
      "constant": true,
      "inputs": [
        {
          "name": "identityId",
          "type": "string"
        },
        {
          "name": "certnumber",
          "type": "string"
        }
      ],
      "name": "getFirstCertUser",
      "outputs": [
        {
          "name": "username",
          "type": "string"
        },
        {
          "name": "identityId1",
          "type": "string"
        },
        {
          "name": "certnumber1",
          "type": "string"
        },
        {
          "name": "orgname",
          "type": "string"
        },
        {
          "name": "hashstr",
          "type": "string"
        },
        {
          "name": "useraddress1",
          "type": "address"
        },
        {
          "name": "CA",
          "type": "string"
        },
        {
          "name": "CAAddress",
          "type": "address"
        },
        {
          "name": "userstate",
          "type": "uint32"
        },
        {
          "name": "readyTime",
          "type": "uint32"
        }
      ],
      "payable": false,
      "stateMutability": "view",
      "type": "function"
    },
    {
      "constant": true,
      "inputs": [
        {
          "name": "certUserAddress",
          "type": "address"
        },
        {
          "name": "index",
          "type": "uint256"
        }
      ],
      "name": "getCertUserByAddressAndIndex",
      "outputs": [
        {
          "name": "username",
          "type": "string"
        },
        {
          "name": "identityId1",
          "type": "string"
        },
        {
          "name": "certnumber1",
          "type": "string"
        },
        {
          "name": "orgname",
          "type": "string"
        },
        {
          "name": "hashstr",
          "type": "string"
        },
        {
          "name": "useraddress1",
          "type": "address"
        },
        {
          "name": "CA",
          "type": "string"
        },
        {
          "name": "CAAddress",
          "type": "address"
        },
        {
          "name": "userstate",
          "type": "uint32"
        },
        {
          "name": "readyTime",
          "type": "uint32"
        }
      ],
      "payable": false,
      "stateMutability": "view",
      "type": "function"
    },
    {
      "constant": false,
      "inputs": [
        {
          "name": "identityId",
          "type": "string"
        },
        {
          "name": "certnumber",
          "type": "string"
        },
        {
          "name": "state",
          "type": "uint256"
        }
      ],
      "name": "changeCertUserState",
      "outputs": [
        {
          "name": "isChanged",
          "type": "bool"
        }
      ],
      "payable": true,
      "stateMutability": "payable",
      "type": "function"
    },
    {
      "constant": true,
      "inputs": [
        {
          "name": "addr",
          "type": "address"
        }
      ],
      "name": "getAllCertUsers",
      "outputs": [
        {
          "name": "",
          "type": "string"
        }
      ],
      "payable": false,
      "stateMutability": "view",
      "type": "function"
    },
    {
      "constant": true,
      "inputs": [
        {
          "name": "identityId",
          "type": "string"
        },
        {
          "name": "certnumber",
          "type": "string"
        }
      ],
      "name": "verifyCertUser",
      "outputs": [
        {
          "name": "istrue",
          "type": "bool"
        }
      ],
      "payable": false,
      "stateMutability": "view",
      "type": "function"
    }
  ],
  "bytecode": "0x6060604052736b5344b29e8e7e8e63f61321838f590ff9e7fb95600160006101000a81548173ffffffffffffffffffffffffffffffffffffffff021916908373ffffffffffffffffffffffffffffffffffffffff1602179055506000600260006101000a81548173ffffffffffffffffffffffffffffffffffffffff021916908373ffffffffffffffffffffffffffffffffffffffff1602179055507fffffffffffffffffffffffffffffffffffffffffffffffffffffffffffffffff600355603c6004553415620000d057600080fd5b336000806101000a81548173ffffffffffffffffffffffffffffffffffffffff021916908373ffffffffffffffffffffffffffffffffffffffff160217905550620186a0600860003273ffffffffffffffffffffffffffffffffffffffff1673ffffffffffffffffffffffffffffffffffffffff16815260200190815260200160002081905550600780548060010182816200016d919062001442565b91600052602060002090016000600160009054906101000a900473ffffffffffffffffffffffffffffffffffffffff16909190916101000a81548173ffffffffffffffffffffffffffffffffffffffff021916908373ffffffffffffffffffffffffffffffffffffffff16021790555050620001fc620002026401000000000262002594176401000000009004565b620016e4565b620003aa6040805190810160405280600881526020017f757365726e616d650000000000000000000000000000000000000000000000008152506040805190810160405280600281526020017f31310000000000000000000000000000000000000000000000000000000000008152506040805190810160405280600281526020017f31310000000000000000000000000000000000000000000000000000000000008152506040805190810160405280600281526020017f31310000000000000000000000000000000000000000000000000000000000008152506040805190810160405280600281526020017f3131000000000000000000000000000000000000000000000000000000000000815250600160009054906101000a900473ffffffffffffffffffffffffffffffffffffffff166040805190810160405280600281526020017f4341000000000000000000000000000000000000000000000000000000000000815250600160009054906101000a900473ffffffffffffffffffffffffffffffffffffffff16620006ff64010000000002620013f6176401000000009004565b50620005536040805190810160405280600881526020017f757365726e616d650000000000000000000000000000000000000000000000008152506040805190810160405280600281526020017f32320000000000000000000000000000000000000000000000000000000000008152506040805190810160405280600281526020017f32320000000000000000000000000000000000000000000000000000000000008152506040805190810160405280600281526020017f32320000000000000000000000000000000000000000000000000000000000008152506040805190810160405280600281526020017f3232000000000000000000000000000000000000000000000000000000000000815250600160009054906101000a900473ffffffffffffffffffffffffffffffffffffffff166040805190810160405280600281526020017f4341000000000000000000000000000000000000000000000000000000000000815250600160009054906101000a900473ffffffffffffffffffffffffffffffffffffffff16620006ff64010000000002620013f6176401000000009004565b50620006fc6040805190810160405280600881526020017f757365726e616d650000000000000000000000000000000000000000000000008152506040805190810160405280600281526020017f33330000000000000000000000000000000000000000000000000000000000008152506040805190810160405280600281526020017f33330000000000000000000000000000000000000000000000000000000000008152506040805190810160405280600281526020017f33330000000000000000000000000000000000000000000000000000000000008152506040805190810160405280600281526020017f3333000000000000000000000000000000000000000000000000000000000000815250600160009054906101000a900473ffffffffffffffffffffffffffffffffffffffff166040805190810160405280600281526020017f4341000000000000000000000000000000000000000000000000000000000000815250600160009054906101000a900473ffffffffffffffffffffffffffffffffffffffff16620006ff64010000000002620013f6176401000000009004565b50565b6200070962001471565b600080600260009054906101000a900473ffffffffffffffffffffffffffffffffffffffff1673ffffffffffffffffffffffffffffffffffffffff168673ffffffffffffffffffffffffffffffffffffffff16141515156200076a57600080fd5b600260009054906101000a900473ffffffffffffffffffffffffffffffffffffffff1673ffffffffffffffffffffffffffffffffffffffff168473ffffffffffffffffffffffffffffffffffffffff1614151515620007c857600080fd5b600354620007ea8562000bdd6401000000000262002337176401000000009004565b14156200085657606060405190810160405280603681526020017f696e76616c696420434120616464726573732c20706c6561736520616464204381526020017f41206164647265737320746f2043417320666972737400000000000000000000815250925062000bcf565b620008768a8a62000ce46401000000000262002e3e176401000000009004565b915060035482141515620008e957606060405190810160405280602981526020017f6164642066616c73652c2074686520436572745573657220686173206164646581526020017f64206265666f72652e0000000000000000000000000000000000000000000000815250925062000bcf565b60058054806001018281620008ff919062001485565b91600052602060002090600a02016000610140604051908101604052808f81526020018e81526020018d81526020018c81526020018b81526020018a73ffffffffffffffffffffffffffffffffffffffff1681526020018981526020018873ffffffffffffffffffffffffffffffffffffffff168152602001600081526020014281525090919091506000820151816000019080519060200190620009a6929190620014ba565b506020820151816001019080519060200190620009c5929190620014ba565b506040820151816002019080519060200190620009e4929190620014ba565b50606082015181600301908051906020019062000a03929190620014ba565b50608082015181600401908051906020019062000a22929190620014ba565b5060a08201518160050160006101000a81548173ffffffffffffffffffffffffffffffffffffffff021916908373ffffffffffffffffffffffffffffffffffffffff16021790555060c082015181600601908051906020019062000a88929190620014ba565b5060e08201518160070160006101000a81548173ffffffffffffffffffffffffffffffffffffffff021916908373ffffffffffffffffffffffffffffffffffffffff1602179055506101008201518160080155610120820151816009015550509050600660008773ffffffffffffffffffffffffffffffffffffffff1673ffffffffffffffffffffffffffffffffffffffff168152602001908152602001600020805480600101828162000b3d919062001541565b916000526020600020900160008390919091505550808673ffffffffffffffffffffffffffffffffffffffff167f8e767ed572cf1cbea347c30c1cf3ed8b8c6299548a0ca546a4377dc30c367fc560405160405180910390a36040805190810160405280600b81526020017f616464207375636365737300000000000000000000000000000000000000000081525092505b505098975050505050505050565b600080600260009054906101000a900473ffffffffffffffffffffffffffffffffffffffff1673ffffffffffffffffffffffffffffffffffffffff168373ffffffffffffffffffffffffffffffffffffffff161415151562000c3e57600080fd5b600090505b60078054905081101562000cd8578273ffffffffffffffffffffffffffffffffffffffff1660078281548110151562000c7857fe5b906000526020600020900160009054906101000a900473ffffffffffffffffffffffffffffffffffffffff1673ffffffffffffffffffffffffffffffffffffffff16141562000cca5780915062000cde565b808060010191505062000c43565b60035491505b50919050565b600062000cf062001570565b600062000d1062000f336401000000000262001d58176401000000009004565b9150600090505b815181101562000f2557846040518082805190602001908083835b60208310151562000d59578051825260208201915060208101905060208303925062000d32565b6001836020036101000a038019825116818451168082178552505050505050905001915050604051809103902060001916828281518110151562000d9957fe5b90602001906020020151602001516040518082805190602001908083835b60208310151562000dde578051825260208201915060208101905060208303925062000db7565b6001836020036101000a03801982511681845116808217855250505050505090500191505060405180910390206000191614801562000f085750836040518082805190602001908083835b60208310151562000e50578051825260208201915060208101905060208303925062000e29565b6001836020036101000a038019825116818451168082178552505050505050905001915050604051809103902060001916828281518110151562000e9057fe5b90602001906020020151604001516040518082805190602001908083835b60208310151562000ed5578051825260208201915060208101905060208303925062000eae565b6001836020036101000a038019825116818451168082178552505050505050905001915050604051809103902060001916145b1562000f175780925062000f2b565b808060010191505062000d17565b60035492505b505092915050565b62000f3d62001570565b6005805480602002602001604051908101604052809291908181526020016000905b828210156200143957838290600052602060002090600a02016101406040519081016040529081600082018054600181600116156101000203166002900480601f016020809104026020016040519081016040528092919081815260200182805460018160011615610100020316600290048015620010225780601f1062000ff65761010080835404028352916020019162001022565b820191906000526020600020905b8154815290600101906020018083116200100457829003601f168201915b50505050508152602001600182018054600181600116156101000203166002900480601f016020809104026020016040519081016040528092919081815260200182805460018160011615610100020316600290048015620010c85780601f106200109c57610100808354040283529160200191620010c8565b820191906000526020600020905b815481529060010190602001808311620010aa57829003601f168201915b50505050508152602001600282018054600181600116156101000203166002900480601f0160208091040260200160405190810160405280929190818152602001828054600181600116156101000203166002900480156200116e5780601f1062001142576101008083540402835291602001916200116e565b820191906000526020600020905b8154815290600101906020018083116200115057829003601f168201915b50505050508152602001600382018054600181600116156101000203166002900480601f016020809104026020016040519081016040528092919081815260200182805460018160011615610100020316600290048015620012145780601f10620011e85761010080835404028352916020019162001214565b820191906000526020600020905b815481529060010190602001808311620011f657829003601f168201915b50505050508152602001600482018054600181600116156101000203166002900480601f016020809104026020016040519081016040528092919081815260200182805460018160011615610100020316600290048015620012ba5780601f106200128e57610100808354040283529160200191620012ba565b820191906000526020600020905b8154815290600101906020018083116200129c57829003601f168201915b505050505081526020016005820160009054906101000a900473ffffffffffffffffffffffffffffffffffffffff1673ffffffffffffffffffffffffffffffffffffffff1673ffffffffffffffffffffffffffffffffffffffff168152602001600682018054600181600116156101000203166002900480601f016020809104026020016040519081016040528092919081815260200182805460018160011615610100020316600290048015620013b65780601f106200138a57610100808354040283529160200191620013b6565b820191906000526020600020905b8154815290600101906020018083116200139857829003601f168201915b505050505081526020016007820160009054906101000a900473ffffffffffffffffffffffffffffffffffffffff1673ffffffffffffffffffffffffffffffffffffffff1673ffffffffffffffffffffffffffffffffffffffff168152602001600882015481526020016009820154815250508152602001906001019062000f5f565b50505050905090565b8154818355818115116200146c578183600052602060002091820191016200146b919062001584565b5b505050565b602060405190810160405280600081525090565b815481835581811511620014b557600a0281600a028360005260206000209182019101620014b49190620015ac565b5b505050565b828054600181600116156101000203166002900490600052602060002090601f016020900481019282601f10620014fd57805160ff19168380011785556200152e565b828001600101855582156200152e579182015b828111156200152d57825182559160200191906001019062001510565b5b5090506200153d919062001584565b5090565b8154818355818115116200156b578183600052602060002091820191016200156a919062001584565b5b505050565b602060405190810160405280600081525090565b620015a991905b80821115620015a55760008160009055506001016200158b565b5090565b90565b6200169591905b80821115620016915760008082016000620015cf919062001698565b600182016000620015e1919062001698565b600282016000620015f3919062001698565b60038201600062001605919062001698565b60048201600062001617919062001698565b6005820160006101000a81549073ffffffffffffffffffffffffffffffffffffffff021916905560068201600062001650919062001698565b6007820160006101000a81549073ffffffffffffffffffffffffffffffffffffffff02191690556008820160009055600982016000905550600a01620015b3565b5090565b90565b50805460018160011615610100020316600290046000825580601f10620016c05750620016e1565b601f016020900490600052602060002090810190620016e0919062001584565b5b50565b6142cf80620016f46000396000f300606060405260043610610111576000357c0100000000000000000000000000000000000000000000000000000000900463ffffffff168062c0d3f0146101165780630c0edc271461014c5780631486e993146101775780631665537c146101b65780631da64e57146101ec5780632d5dce6714610218578063518aa6ea1461024e5780635f9f0372146102845780637843371c146102af5780637bd703e8146102ee578063840e46601461032457806388e262301461034d5780638da5cb5b146103765780638e2e56461461039f57806390b98a11146103d5578063a698165a1461040b578063eabaebb014610420578063f2fde38b1461045f578063f8b2cb4f14610481578063fb80d39a146104b7575b600080fd5b341561012157600080fd5b610136600461013190369061392b565b6104e2565b6040516101439190613eaf565b60405180910390f35b610161600461015c903690613b3e565b61057f565b60405161016e9190613ed1565b60405180910390f35b341561018257600080fd5b6101976004610192903690613990565b610651565b6040516101ad9a99989796959493929190613f0e565b60405180910390f35b34156101c157600080fd5b6101d660046101d1903690613bbd565b61080a565b6040516101e39190613e72565b60405180910390f35b61020160046101fc90369061392b565b610849565b60405161020f9291906140b5565b60405180910390f35b341561022357600080fd5b6102386004610233903690613990565b6108db565b6040516102459190613ed1565b60405180910390f35b341561025957600080fd5b61026e600461026990369061392b565b610acf565b60405161027b9190613eec565b60405180910390f35b61029960046102949036906139fc565b6113f6565b6040516102a69190613eec565b60405180910390f35b34156102ba57600080fd5b6102cf60046102ca903690613bbd565b611890565b6040516102e59a99989796959493929190613fd4565b60405180910390f35b34156102f957600080fd5b61030e600461030990369061392b565b611cc3565b60405161031b919061409a565b60405180910390f35b341561032f57600080fd5b610337611d58565b6040516103449190613e8d565b60405180910390f35b341561035857600080fd5b61036061224b565b60405161036d9190613eec565b60405180910390f35b341561038157600080fd5b610389612312565b6040516103969190613e72565b60405180910390f35b34156103aa57600080fd5b6103bf60046103ba90369061392b565b612337565b6040516103cc919061409a565b60405180910390f35b34156103e057600080fd5b6103f560046103f0903690613954565b612438565b6040516104029190613ed1565b60405180910390f35b341561041657600080fd5b61041e612594565b005b341561042b57600080fd5b610440600461043b903690613954565b612a4f565b6040516104569a99989796959493929190613f0e565b60405180910390f35b341561046a57600080fd5b61047f600461047a90369061392b565b612b2a565b005b341561048c57600080fd5b6104a1600461049c90369061392b565b612c7f565b6040516104ae919061409a565b60405180910390f35b6104cc60046104c790369061392b565b612cc8565b6040516104d9919061409a565b60405180910390f35b6104ea613511565b600660008373ffffffffffffffffffffffffffffffffffffffff1673ffffffffffffffffffffffffffffffffffffffff16815260200190815260200160002080548060200260200160405190810160405280929190818152602001828054801561057357602002820191906000526020600020905b81548152602001906001019080831161055f575b50505050509050919050565b600080600561058e8686612e3e565b81548110151561059a57fe5b90600052602060002090600a02019050828160080154141515156105bd57600080fd5b600281600801541415610636573373ffffffffffffffffffffffffffffffffffffffff168160070160009054906101000a900473ffffffffffffffffffffffffffffffffffffffff1673ffffffffffffffffffffffffffffffffffffffff1614151561062857600080fd5b828160080181905550610640565b8281600801819055505b61064981613066565b509392505050565b610659613525565b610661613525565b610669613525565b610671613525565b610679613525565b6000610683613525565b6000806000610690613539565b600061069a611d58565b91506106a68e8e612e3e565b905060035481141515156106b957600080fd5b81818151811015156106c757fe5b906020019060200201516000015182828151811015156106e357fe5b906020019060200201516020015183838151811015156106ff57fe5b9060200190602002015160400151848481518110151561071b57fe5b9060200190602002015160600151858581518110151561073757fe5b9060200190602002015160800151868681518110151561075357fe5b9060200190602002015160a00151878781518110151561076f57fe5b9060200190602002015160c00151888881518110151561078b57fe5b9060200190602002015160e0015189898151811015156107a757fe5b9060200190602002015161010001518a8a8151811015156107c457fe5b9060200190602002015161012001518999508898508797508696508595508393509b509b509b509b509b509b509b509b509b509b5050509295989b9194979a5092959850565b60078181548110151561081957fe5b90600052602060002090016000915054906101000a900473ffffffffffffffffffffffffffffffffffffffff1681565b60008060035461085884612337565b14151561086d576003546000915091506108d6565b60078054806001018281610881919061354d565b9160005260206000209001600085909190916101000a81548173ffffffffffffffffffffffffffffffffffffffff021916908373ffffffffffffffffffffffffffffffffffffffff1602179055506001915091505b915091565b600080600090505b600580549050811015610ac3576109b260058281548110151561090257fe5b90600052602060002090600a02016001018054600181600116156101000203166002900480601f0160208091040260200160405190810160405280929190818152602001828054600181600116156101000203166002900480156109a75780601f1061097c576101008083540402835291602001916109a7565b820191906000526020600020905b81548152906001019060200180831161098a57829003601f168201915b50505050508561307c565b8015610a7c5750610a7b6005828154811015156109cb57fe5b90600052602060002090600a02016002018054600181600116156101000203166002900480601f016020809104026020016040519081016040528092919081815260200182805460018160011615610100020316600290048015610a705780601f10610a4557610100808354040283529160200191610a70565b820191906000526020600020905b815481529060010190602001808311610a5357829003601f168201915b50505050508461307c565b5b8015610aa857506000600582815481101515610a9457fe5b90600052602060002090600a020160080154145b15610ab65760019150610ac8565b80806001019150506108e3565b600091505b5092915050565b610ad7613525565b610adf613511565b610ae7613579565b6000610af161358d565b610af9613525565b610b01613525565b610b09613525565b610b11613525565b610b19613525565b610b21613525565b610b29613579565b610b31613525565b610b3a8e6104e2565b9b5060008c511415610b83576040805190810160405280601281526020017f6e6f2043657274557365722065786973742100000000000000000000000000008152509c506113e5565b8b51604051805910610b925750595b908082528060200260200182016040528015610bc857816020015b610bb5613631565b815260200190600190039081610bad5790505b509a50600099508b518a10156113d95760058c8b815181101515610be857fe5b90602001906020020151815481101515610bfe57fe5b90600052602060002090600a02016101406040519081016040529081600082018054600181600116156101000203166002900480601f016020809104026020016040519081016040528092919081815260200182805460018160011615610100020316600290048015610cb25780601f10610c8757610100808354040283529160200191610cb2565b820191906000526020600020905b815481529060010190602001808311610c9557829003601f168201915b50505050508152602001600182018054600181600116156101000203166002900480601f016020809104026020016040519081016040528092919081815260200182805460018160011615610100020316600290048015610d545780601f10610d2957610100808354040283529160200191610d54565b820191906000526020600020905b815481529060010190602001808311610d3757829003601f168201915b50505050508152602001600282018054600181600116156101000203166002900480601f016020809104026020016040519081016040528092919081815260200182805460018160011615610100020316600290048015610df65780601f10610dcb57610100808354040283529160200191610df6565b820191906000526020600020905b815481529060010190602001808311610dd957829003601f168201915b50505050508152602001600382018054600181600116156101000203166002900480601f016020809104026020016040519081016040528092919081815260200182805460018160011615610100020316600290048015610e985780601f10610e6d57610100808354040283529160200191610e98565b820191906000526020600020905b815481529060010190602001808311610e7b57829003601f168201915b50505050508152602001600482018054600181600116156101000203166002900480601f016020809104026020016040519081016040528092919081815260200182805460018160011615610100020316600290048015610f3a5780601f10610f0f57610100808354040283529160200191610f3a565b820191906000526020600020905b815481529060010190602001808311610f1d57829003601f168201915b505050505081526020016005820160009054906101000a900473ffffffffffffffffffffffffffffffffffffffff1673ffffffffffffffffffffffffffffffffffffffff1673ffffffffffffffffffffffffffffffffffffffff168152602001600682018054600181600116156101000203166002900480601f0160208091040260200160405190810160405280929190818152602001828054600181600116156101000203166002900480156110325780601f1061100757610100808354040283529160200191611032565b820191906000526020600020905b81548152906001019060200180831161101557829003601f168201915b505050505081526020016007820160009054906101000a900473ffffffffffffffffffffffffffffffffffffffff1673ffffffffffffffffffffffffffffffffffffffff1673ffffffffffffffffffffffffffffffffffffffff1681526020016008820154815260200160098201548152505098506110ea89600001516040805190810160405280600181526020017f21000000000000000000000000000000000000000000000000000000000000008152506131c0565b975061112f89602001516040805190810160405280600181526020017f21000000000000000000000000000000000000000000000000000000000000008152506131c0565b965061117489604001516040805190810160405280600181526020017f21000000000000000000000000000000000000000000000000000000000000008152506131c0565b95506111b989606001516040805190810160405280600181526020017f21000000000000000000000000000000000000000000000000000000000000008152506131c0565b94506111fe8960c001516040805190810160405280600181526020017f21000000000000000000000000000000000000000000000000000000000000008152506131c0565b93506000896101000151141561124b576040805190810160405280600481526020017f303f3f3f0000000000000000000000000000000000000000000000000000000081525092506112d0565b60018961010001511415611296576040805190810160405280600481526020017f313f3f3f0000000000000000000000000000000000000000000000000000000081525092506112cf565b6040805190810160405280600481526020017f323f3f3f0000000000000000000000000000000000000000000000000000000081525092505b5b60066040518059106112df5750595b90808252806020026020018201604052801561131557816020015b611302613631565b8152602001906001900390816112fa5790505b5091508782600081518110151561132857fe5b906020019060200201819052508682600181518110151561134557fe5b906020019060200201819052508582600281518110151561136257fe5b906020019060200201819052508482600381518110151561137f57fe5b906020019060200201819052508382600681518110151561139c57fe5b90602001906020020181905250828260088151811015156113b957fe5b906020019060200201819052506113cf8261336f565b9050809c506113e5565b6113e28b61336f565b9c505b505050505050505050505050919050565b6113fe613525565b600080600260009054906101000a900473ffffffffffffffffffffffffffffffffffffffff1673ffffffffffffffffffffffffffffffffffffffff168673ffffffffffffffffffffffffffffffffffffffff161415151561145e57600080fd5b600260009054906101000a900473ffffffffffffffffffffffffffffffffffffffff1673ffffffffffffffffffffffffffffffffffffffff168473ffffffffffffffffffffffffffffffffffffffff16141515156114bb57600080fd5b6003546114c785612337565b141561153157606060405190810160405280603681526020017f696e76616c696420434120616464726573732c20706c6561736520616464204381526020017f41206164647265737320746f20434173206669727374000000000000000000008152509250611882565b61153b8a8a612e3e565b9150600354821415156115ac57606060405190810160405280602981526020017f6164642066616c73652c2074686520436572745573657220686173206164646581526020017f64206265666f72652e00000000000000000000000000000000000000000000008152509250611882565b600580548060010182816115c09190613645565b91600052602060002090600a02016000610140604051908101604052808f81526020018e81526020018d81526020018c81526020018b81526020018a73ffffffffffffffffffffffffffffffffffffffff1681526020018981526020018873ffffffffffffffffffffffffffffffffffffffff168152602001600081526020014281525090919091506000820151816000019080519060200190611665929190613677565b506020820151816001019080519060200190611682929190613677565b50604082015181600201908051906020019061169f929190613677565b5060608201518160030190805190602001906116bc929190613677565b5060808201518160040190805190602001906116d9929190613677565b5060a08201518160050160006101000a81548173ffffffffffffffffffffffffffffffffffffffff021916908373ffffffffffffffffffffffffffffffffffffffff16021790555060c082015181600601908051906020019061173d929190613677565b5060e08201518160070160006101000a81548173ffffffffffffffffffffffffffffffffffffffff021916908373ffffffffffffffffffffffffffffffffffffffff1602179055506101008201518160080155610120820151816009015550509050600660008773ffffffffffffffffffffffffffffffffffffffff1673ffffffffffffffffffffffffffffffffffffffff16815260200190815260200160002080548060010182816117f091906136f7565b916000526020600020900160008390919091505550808673ffffffffffffffffffffffffffffffffffffffff167f8e767ed572cf1cbea347c30c1cf3ed8b8c6299548a0ca546a4377dc30c367fc560405160405180910390a36040805190810160405280600b81526020017f616464207375636365737300000000000000000000000000000000000000000081525092505b505098975050505050505050565b60058181548110151561189f57fe5b90600052602060002090600a0201600091509050806000018054600181600116156101000203166002900480601f01602080910402602001604051908101604052809291908181526020018280546001816001161561010002031660029004801561194b5780601f106119205761010080835404028352916020019161194b565b820191906000526020600020905b81548152906001019060200180831161192e57829003601f168201915b505050505090806001018054600181600116156101000203166002900480601f0160208091040260200160405190810160405280929190818152602001828054600181600116156101000203166002900480156119e95780601f106119be576101008083540402835291602001916119e9565b820191906000526020600020905b8154815290600101906020018083116119cc57829003601f168201915b505050505090806002018054600181600116156101000203166002900480601f016020809104026020016040519081016040528092919081815260200182805460018160011615610100020316600290048015611a875780601f10611a5c57610100808354040283529160200191611a87565b820191906000526020600020905b815481529060010190602001808311611a6a57829003601f168201915b505050505090806003018054600181600116156101000203166002900480601f016020809104026020016040519081016040528092919081815260200182805460018160011615610100020316600290048015611b255780601f10611afa57610100808354040283529160200191611b25565b820191906000526020600020905b815481529060010190602001808311611b0857829003601f168201915b505050505090806004018054600181600116156101000203166002900480601f016020809104026020016040519081016040528092919081815260200182805460018160011615610100020316600290048015611bc35780601f10611b9857610100808354040283529160200191611bc3565b820191906000526020600020905b815481529060010190602001808311611ba657829003601f168201915b5050505050908060050160009054906101000a900473ffffffffffffffffffffffffffffffffffffffff1690806006018054600181600116156101000203166002900480601f016020809104026020016040519081016040528092919081815260200182805460018160011615610100020316600290048015611c875780601f10611c5c57610100808354040283529160200191611c87565b820191906000526020600020905b815481529060010190602001808311611c6a57829003601f168201915b5050505050908060070160009054906101000a900473ffffffffffffffffffffffffffffffffffffffff1690806008015490806009015490508a565b600073__ConvertLib____________________________6396e4ee3d611ce884612c7f565b60026040518363ffffffff167c0100000000000000000000000000000000000000000000000000000000028152600401611d239291906140de565b60206040518083038186803b1515611d3a57600080fd5b5af41515611d4757600080fd5b505050604051805190509050919050565b611d60613539565b6005805480602002602001604051908101604052809291908181526020016000905b8282101561224257838290600052602060002090600a02016101406040519081016040529081600082018054600181600116156101000203166002900480601f016020809104026020016040519081016040528092919081815260200182805460018160011615610100020316600290048015611e405780601f10611e1557610100808354040283529160200191611e40565b820191906000526020600020905b815481529060010190602001808311611e2357829003601f168201915b50505050508152602001600182018054600181600116156101000203166002900480601f016020809104026020016040519081016040528092919081815260200182805460018160011615610100020316600290048015611ee25780601f10611eb757610100808354040283529160200191611ee2565b820191906000526020600020905b815481529060010190602001808311611ec557829003601f168201915b50505050508152602001600282018054600181600116156101000203166002900480601f016020809104026020016040519081016040528092919081815260200182805460018160011615610100020316600290048015611f845780601f10611f5957610100808354040283529160200191611f84565b820191906000526020600020905b815481529060010190602001808311611f6757829003601f168201915b50505050508152602001600382018054600181600116156101000203166002900480601f0160208091040260200160405190810160405280929190818152602001828054600181600116156101000203166002900480156120265780601f10611ffb57610100808354040283529160200191612026565b820191906000526020600020905b81548152906001019060200180831161200957829003601f168201915b50505050508152602001600482018054600181600116156101000203166002900480601f0160208091040260200160405190810160405280929190818152602001828054600181600116156101000203166002900480156120c85780601f1061209d576101008083540402835291602001916120c8565b820191906000526020600020905b8154815290600101906020018083116120ab57829003601f168201915b505050505081526020016005820160009054906101000a900473ffffffffffffffffffffffffffffffffffffffff1673ffffffffffffffffffffffffffffffffffffffff1673ffffffffffffffffffffffffffffffffffffffff168152602001600682018054600181600116156101000203166002900480601f0160208091040260200160405190810160405280929190818152602001828054600181600116156101000203166002900480156121c05780601f10612195576101008083540402835291602001916121c0565b820191906000526020600020905b8154815290600101906020018083116121a357829003601f168201915b505050505081526020016007820160009054906101000a900473ffffffffffffffffffffffffffffffffffffffff1673ffffffffffffffffffffffffffffffffffffffff1673ffffffffffffffffffffffffffffffffffffffff1681526020016008820154815260200160098201548152505081526020019060010190611d82565b50505050905090565b612253613525565b6005600081548110151561226357fe5b90600052602060002090600a02016006018054600181600116156101000203166002900480601f0160208091040260200160405190810160405280929190818152602001828054600181600116156101000203166002900480156123085780601f106122dd57610100808354040283529160200191612308565b820191906000526020600020905b8154815290600101906020018083116122eb57829003601f168201915b5050505050905090565b6000809054906101000a900473ffffffffffffffffffffffffffffffffffffffff1681565b600080600260009054906101000a900473ffffffffffffffffffffffffffffffffffffffff1673ffffffffffffffffffffffffffffffffffffffff168373ffffffffffffffffffffffffffffffffffffffff161415151561239757600080fd5b600090505b60078054905081101561242c578273ffffffffffffffffffffffffffffffffffffffff166007828154811015156123cf57fe5b906000526020600020900160009054906101000a900473ffffffffffffffffffffffffffffffffffffffff1673ffffffffffffffffffffffffffffffffffffffff16141561241f57809150612432565b808060010191505061239c565b60035491505b50919050565b600081600860003373ffffffffffffffffffffffffffffffffffffffff1673ffffffffffffffffffffffffffffffffffffffff16815260200190815260200160002054101561248a576000905061258e565b81600860003373ffffffffffffffffffffffffffffffffffffffff1673ffffffffffffffffffffffffffffffffffffffff1681526020019081526020016000206000828254039250508190555081600860008573ffffffffffffffffffffffffffffffffffffffff1673ffffffffffffffffffffffffffffffffffffffff168152602001908152602001600020600082825401925050819055508273ffffffffffffffffffffffffffffffffffffffff163373ffffffffffffffffffffffffffffffffffffffff167fddf252ad1be2c89b69c2b068fc378daa952ba7f163c4a11628f55a4df523b3ef84604051612581919061409a565b60405180910390a3600190505b92915050565b6127266040805190810160405280600881526020017f757365726e616d650000000000000000000000000000000000000000000000008152506040805190810160405280600281526020017f31310000000000000000000000000000000000000000000000000000000000008152506040805190810160405280600281526020017f31310000000000000000000000000000000000000000000000000000000000008152506040805190810160405280600281526020017f31310000000000000000000000000000000000000000000000000000000000008152506040805190810160405280600281526020017f3131000000000000000000000000000000000000000000000000000000000000815250600160009054906101000a900473ffffffffffffffffffffffffffffffffffffffff166040805190810160405280600281526020017f4341000000000000000000000000000000000000000000000000000000000000815250600160009054906101000a900473ffffffffffffffffffffffffffffffffffffffff166113f6565b506128b96040805190810160405280600881526020017f757365726e616d650000000000000000000000000000000000000000000000008152506040805190810160405280600281526020017f32320000000000000000000000000000000000000000000000000000000000008152506040805190810160405280600281526020017f32320000000000000000000000000000000000000000000000000000000000008152506040805190810160405280600281526020017f32320000000000000000000000000000000000000000000000000000000000008152506040805190810160405280600281526020017f3232000000000000000000000000000000000000000000000000000000000000815250600160009054906101000a900473ffffffffffffffffffffffffffffffffffffffff166040805190810160405280600281526020017f4341000000000000000000000000000000000000000000000000000000000000815250600160009054906101000a900473ffffffffffffffffffffffffffffffffffffffff166113f6565b50612a4c6040805190810160405280600881526020017f757365726e616d650000000000000000000000000000000000000000000000008152506040805190810160405280600281526020017f33330000000000000000000000000000000000000000000000000000000000008152506040805190810160405280600281526020017f33330000000000000000000000000000000000000000000000000000000000008152506040805190810160405280600281526020017f33330000000000000000000000000000000000000000000000000000000000008152506040805190810160405280600281526020017f3333000000000000000000000000000000000000000000000000000000000000815250600160009054906101000a900473ffffffffffffffffffffffffffffffffffffffff166040805190810160405280600281526020017f4341000000000000000000000000000000000000000000000000000000000000815250600160009054906101000a900473ffffffffffffffffffffffffffffffffffffffff166113f6565b50565b612a57613525565b612a5f613525565b612a67613525565b612a6f613525565b612a77613525565b6000612a81613525565b6000806000612a8e61358d565b6003548c14151515612a9f57600080fd5b612aa7611d58565b8c815181101515612ab457fe5b906020019060200201519050806000015181602001518260400151836060015184608001518560a001518660c001518760e001518861010001518961012001518999508898508797508696508595508393509a509a509a509a509a509a509a509a509a509a50509295989b9194979a5092959850565b6000809054906101000a900473ffffffffffffffffffffffffffffffffffffffff1673ffffffffffffffffffffffffffffffffffffffff163373ffffffffffffffffffffffffffffffffffffffff16141515612b8557600080fd5b600073ffffffffffffffffffffffffffffffffffffffff168173ffffffffffffffffffffffffffffffffffffffff1614151515612bc157600080fd5b806000806101000a81548173ffffffffffffffffffffffffffffffffffffffff021916908373ffffffffffffffffffffffffffffffffffffffff1602179055508073ffffffffffffffffffffffffffffffffffffffff166000809054906101000a900473ffffffffffffffffffffffffffffffffffffffff1673ffffffffffffffffffffffffffffffffffffffff167f8be0079c531659141344cd1fd0a4f28419497f9722a3daafe3b4186f6b6457e060405160405180910390a350565b6000600860008373ffffffffffffffffffffffffffffffffffffffff1673ffffffffffffffffffffffffffffffffffffffff168152602001908152602001600020549050919050565b6000806000612cd684612337565b915060035482141515612e34576001820190505b600780549050811015612d9a57600781815481101515612d0657fe5b906000526020600020900160009054906101000a900473ffffffffffffffffffffffffffffffffffffffff16600760018303815481101515612d4457fe5b906000526020600020900160006101000a81548173ffffffffffffffffffffffffffffffffffffffff021916908373ffffffffffffffffffffffffffffffffffffffff1602179055508080600101915050612cea565b600260009054906101000a900473ffffffffffffffffffffffffffffffffffffffff166007600160078054905003815481101515612dd457fe5b906000526020600020900160006101000a81548173ffffffffffffffffffffffffffffffffffffffff021916908373ffffffffffffffffffffffffffffffffffffffff1602179055506007805480919060019003612e329190613723565b505b8192505050919050565b6000612e48613539565b6000612e52611d58565b9150600090505b815181101561305857846040518082805190602001908083835b602083101515612e985780518252602082019150602081019050602083039250612e73565b6001836020036101000a0380198251168184511680821785525050505050509050019150506040518091039020600019168282815181101515612ed757fe5b90602001906020020151602001516040518082805190602001908083835b602083101515612f1a5780518252602082019150602081019050602083039250612ef5565b6001836020036101000a03801982511681845116808217855250505050505090500191505060405180910390206000191614801561303e5750836040518082805190602001908083835b602083101515612f895780518252602082019150602081019050602083039250612f64565b6001836020036101000a0380198251168184511680821785525050505050509050019150506040518091039020600019168282815181101515612fc857fe5b90602001906020020151604001516040518082805190602001908083835b60208310151561300b5780518252602082019150602081019050602083039250612fe6565b6001836020036101000a038019825116818451168082178552505050505050905001915050604051809103902060001916145b1561304b5780925061305e565b8080600101915050612e59565b60035492505b505092915050565b600454420163ffffffff16816009018190555050565b6000808251845114151561309357600091506131b9565b600090505b83518110156131b45782818151811015156130af57fe5b9060200101517f010000000000000000000000000000000000000000000000000000000000000090047f0100000000000000000000000000000000000000000000000000000000000000027effffffffffffffffffffffffffffffffffffffffffffffffffffffffffffff1916848281518110151561312a57fe5b9060200101517f010000000000000000000000000000000000000000000000000000000000000090047f0100000000000000000000000000000000000000000000000000000000000000027effffffffffffffffffffffffffffffffffffffffffffffffffffffffffffff19161415156131a757600091506131b9565b8080600101915050613098565b600191505b5092915050565b6131c8613525565b6131d061374f565b60008084518651016040518059106131e55750595b9080825280601f01601f19166020018201604052509250600091505b85518210156132ae57858281518110151561321857fe5b9060200101517f010000000000000000000000000000000000000000000000000000000000000090047f010000000000000000000000000000000000000000000000000000000000000002838381518110151561327157fe5b9060200101907effffffffffffffffffffffffffffffffffffffffffffffffffffffffffffff1916908160001a9053508180600101925050613201565b600090505b84518110156133635784818151811015156132ca57fe5b9060200101517f010000000000000000000000000000000000000000000000000000000000000090047f010000000000000000000000000000000000000000000000000000000000000002838288510181518110151561332657fe5b9060200101907effffffffffffffffffffffffffffffffffffffffffffffffffffffffffffff1916908160001a90535080806001019150506132b3565b82935050505092915050565b613377613525565b600080600061338461374f565b6000806000955060009450600093505b87518410156133c75787848151811015156133ab57fe5b9060200190602002015151860195508380600101945050613394565b856040518059106133d55750595b9080825280601f01601f19166020018201604052509250600091505b8582101561350357600090505b878281518110151561340c57fe5b90602001906020020151518110156134db57878281518110151561342c57fe5b906020019060200201518181518110151561344357fe5b9060200101517f010000000000000000000000000000000000000000000000000000000000000090047f0100000000000000000000000000000000000000000000000000000000000000028382870181518110151561349e57fe5b9060200101907effffffffffffffffffffffffffffffffffffffffffffffffffffffffffffff1916908160001a90535080806001019150506133fe565b87828151811015156134e957fe5b9060200190602002015151945081806001019250506133f1565b829650505050505050919050565b602060405190810160405280600081525090565b602060405190810160405280600081525090565b602060405190810160405280600081525090565b815481835581811511613574578183600052602060002091820191016135739190613763565b5b505050565b602060405190810160405280600081525090565b610140604051908101604052806135a2613631565b81526020016135af613631565b81526020016135bc613631565b81526020016135c9613631565b81526020016135d6613631565b8152602001600073ffffffffffffffffffffffffffffffffffffffff168152602001613600613631565b8152602001600073ffffffffffffffffffffffffffffffffffffffff16815260200160008152602001600081525090565b602060405190810160405280600081525090565b81548183558181151161367257600a0281600a0283600052602060002091820191016136719190613788565b5b505050565b828054600181600116156101000203166002900490600052602060002090601f016020900481019282601f106136b857805160ff19168380011785556136e6565b828001600101855582156136e6579182015b828111156136e55782518255916020019190600101906136ca565b5b5090506136f39190613763565b5090565b81548183558181151161371e5781836000526020600020918201910161371d9190613763565b5b505050565b81548183558181151161374a578183600052602060002091820191016137499190613763565b5b505050565b602060405190810160405280600081525090565b61378591905b80821115613781576000816000905550600101613769565b5090565b90565b61386291905b8082111561385e57600080820160006137a79190613865565b6001820160006137b79190613865565b6002820160006137c79190613865565b6003820160006137d79190613865565b6004820160006137e79190613865565b6005820160006101000a81549073ffffffffffffffffffffffffffffffffffffffff021916905560068201600061381e9190613865565b6007820160006101000a81549073ffffffffffffffffffffffffffffffffffffffff02191690556008820160009055600982016000905550600a0161378e565b5090565b90565b50805460018160011615610100020316600290046000825580601f1061388b57506138aa565b601f0160209004906000526020600020908101906138a99190613763565b5b50565b60006138b98235614206565b905092915050565b600082601f83011215156138d457600080fd5b81356138e76138e282614134565b614107565b9150808252602083016020830185838301111561390357600080fd5b61390e838284614242565b50505092915050565b60006139238235614226565b905092915050565b60006020828403121561393d57600080fd5b600061394b848285016138ad565b91505092915050565b6000806040838503121561396757600080fd5b6000613975858286016138ad565b925050602061398685828601613917565b9150509250929050565b600080604083850312156139a357600080fd5b600083013567ffffffffffffffff8111156139bd57600080fd5b6139c9858286016138c1565b925050602083013567ffffffffffffffff8111156139e657600080fd5b6139f2858286016138c1565b9150509250929050565b600080600080600080600080610100898b031215613a1957600080fd5b600089013567ffffffffffffffff811115613a3357600080fd5b613a3f8b828c016138c1565b985050602089013567ffffffffffffffff811115613a5c57600080fd5b613a688b828c016138c1565b975050604089013567ffffffffffffffff811115613a8557600080fd5b613a918b828c016138c1565b965050606089013567ffffffffffffffff811115613aae57600080fd5b613aba8b828c016138c1565b955050608089013567ffffffffffffffff811115613ad757600080fd5b613ae38b828c016138c1565b94505060a0613af48b828c016138ad565b93505060c089013567ffffffffffffffff811115613b1157600080fd5b613b1d8b828c016138c1565b92505060e0613b2e8b828c016138ad565b9150509295985092959890939650565b600080600060608486031215613b5357600080fd5b600084013567ffffffffffffffff811115613b6d57600080fd5b613b79868287016138c1565b935050602084013567ffffffffffffffff811115613b9657600080fd5b613ba2868287016138c1565b9250506040613bb386828701613917565b9150509250925092565b600060208284031215613bcf57600080fd5b6000613bdd84828501613917565b91505092915050565b613bef816141c0565b82525050565b6000613c008261417a565b80845260208401935083602082028501613c1985614160565b60005b84811015613c52578383038852613c34838351613d48565b9250613c3f826141a6565b9150602088019750600181019050613c1c565b508196508694505050505092915050565b6000613c6e82614185565b808452602084019350613c808361416d565b60005b82811015613cb257613c96868351613e45565b613c9f826141b3565b9150602086019550600181019050613c83565b50849250505092915050565b613cc7816141e0565b82525050565b613cd681614230565b82525050565b6000613ce78261419b565b808452613cfb816020860160208601614251565b613d0481614284565b602085010191505092915050565b6000613d1d82614190565b808452613d31816020860160208601614251565b613d3a81614284565b602085010191505092915050565b6000610140830160008301518482036000860152613d668282613d12565b91505060208301518482036020860152613d808282613d12565b91505060408301518482036040860152613d9a8282613d12565b91505060608301518482036060860152613db48282613d12565b91505060808301518482036080860152613dce8282613d12565b91505060a0830151613de360a0860182613be6565b5060c083015184820360c0860152613dfb8282613d12565b91505060e0830151613e1060e0860182613be6565b50610100830151613e25610100860182613e45565b50610120830151613e3a610120860182613e45565b508091505092915050565b613e4e816141ec565b82525050565b613e5d816141ec565b82525050565b613e6c816141f6565b82525050565b6000602082019050613e876000830184613be6565b92915050565b60006020820190508181036000830152613ea78184613bf5565b905092915050565b60006020820190508181036000830152613ec98184613c63565b905092915050565b6000602082019050613ee66000830184613cbe565b92915050565b60006020820190508181036000830152613f068184613cdc565b905092915050565b6000610140820190508181036000830152613f29818d613cdc565b90508181036020830152613f3d818c613cdc565b90508181036040830152613f51818b613cdc565b90508181036060830152613f65818a613cdc565b90508181036080830152613f798189613cdc565b9050613f8860a0830188613be6565b81810360c0830152613f9a8187613cdc565b9050613fa960e0830186613be6565b613fb7610100830185613e63565b613fc5610120830184613e63565b9b9a5050505050505050505050565b6000610140820190508181036000830152613fef818d613d12565b90508181036020830152614003818c613d12565b90508181036040830152614017818b613d12565b9050818103606083015261402b818a613d12565b9050818103608083015261403f8189613d12565b905061404e60a0830188613be6565b81810360c08301526140608187613d12565b905061406f60e0830186613be6565b61407d610100830185613e45565b61408b610120830184613e45565b9b9a5050505050505050505050565b60006020820190506140af6000830184613e45565b92915050565b60006040820190506140ca6000830185613e45565b6140d76020830184613cbe565b9392505050565b60006040820190506140f36000830185613e54565b6141006020830184613ccd565b9392505050565b6000604051905081810181811067ffffffffffffffff8211171561412a57600080fd5b8060405250919050565b600067ffffffffffffffff82111561414b57600080fd5b601f19601f8301169050602081019050919050565b6000602082019050919050565b6000602082019050919050565b600081519050919050565b600081519050919050565b600081519050919050565b600081519050919050565b6000602082019050919050565b6000602082019050919050565b600073ffffffffffffffffffffffffffffffffffffffff82169050919050565b60008115159050919050565b6000819050919050565b600063ffffffff82169050919050565b600073ffffffffffffffffffffffffffffffffffffffff82169050919050565b6000819050919050565b600061423b826141ec565b9050919050565b82818337600083830152505050565b60005b8381101561426f578082015181840152602081019050614254565b8381111561427e576000848401525b50505050565b6000601f19601f83011690509190505600a265627a7a72305820e5500839ac319ba838cff9c14b7de893edec2a74c0e173c1c2f63cb4076cacaf6c6578706572696d656e74616cf50037",
  "source": "pragma solidity ^0.4.17;\npragma experimental ABIEncoderV2;\n\nimport \"./ConvertLib.sol\";\nimport \"./ownable.sol\";\n\ncontract MetaCoin is Ownable{\n\n\n\taddress ownerOfContract = 0x6b5344B29E8E7e8e63f61321838f590fF9e7fB95;   //\n\n\taddress nullAddress = 0x0;  //0\n\n\tuint nullIndex = uint(-1); //\n\n\tuint cooldownTime = 1 minutes;  //CA\n\n\tCertUser[] public certusers;    //     \n\n\tmapping (address => uint[]) mapToCertUserIndex; // -->\n\n\taddress[] public CAs;  // CA\n\n\tmapping (address => uint) balances;\n\n\tevent Transfer(address indexed _from, address indexed _to, uint256 _value);\n\tevent CreateCertUser(\n\t\taddress indexed userAddress,\n\t\tuint indexed certIndex\n\t);\n\n\t// ------------------------------------------------------------------------\n\tbool locked;\n\tmodifier noReentrancy() {\n\t\tif(locked) throw;\n\t\tlocked = true;\n\t\t_;\n\t\tlocked = false;\n\t}\n\t//-------------------------------------------------------------------------------\n\n\tfunction MetaCoin() public {\n\n\t\tbalances[tx.origin] = 100000;\n\t\tCAs.push(ownerOfContract);\n\t\taddDefaultCertUsers();\n\t}\n\n\tfunction addDefaultCertUsers() public {\n\t\tcreateCertUser(\"username\", \"11\", \"11\", \"11\", \"11\", ownerOfContract, \"CA\", ownerOfContract);\n\t\tcreateCertUser(\"username\", \"22\", \"22\", \"22\", \"22\", ownerOfContract, \"CA\", ownerOfContract);\n\t\tcreateCertUser(\"username\", \"33\", \"33\", \"33\", \"33\", ownerOfContract, \"CA\", ownerOfContract);\n\t}\n\n\tfunction sendCoin(address receiver, uint amount) public returns(bool sufficient) {\n\t\tif (balances[msg.sender] < amount) return false;\n\t\tbalances[msg.sender] -= amount;\n\t\tbalances[receiver] += amount;\n\t\tTransfer(msg.sender, receiver, amount);\n\t\treturn true;\n\t}\n\n\tfunction getBalanceInEth(address addr) public view returns(uint){\n\t\treturn ConvertLib.convert(getBalance(addr),2);\n\t}\n\n\tfunction getBalance(address addr) public view returns(uint) {\n\t\treturn balances[addr];\n\t}\n\n\tfunction getCertUserFirst() public view returns(string){\n\t\treturn certusers[0].CA;\n\t}\n\n\n\t//-------------------------------------------------------------------------------\n\tstruct CertUser {\n\t\tstring username;   // \n\t\tstring identityId;  //\n\t\tstring certnumber; //\n\t\tstring orgname;  //\n\t\tstring hashstr;   //\n\t\taddress useraddress; // \n\t\tstring CA;  //   \n\t\taddress CAAddress;\n\t\tuint userstate; // 0   1     2\n\t\tuint readyTime;\n\t}\n\n\t//CACA       \n\t// CA \n\n\tfunction addCA(address CAAddress) public payable returns (uint CAIndex, bool error){\n\t\t//require(msg.sender == ownerOfContract);\n\t\tif(getCAByAddress(CAAddress) != nullIndex) {\n\t\t\treturn (nullIndex, false);\n\t\t}\n\t\treturn (CAs.push(CAAddress),true);\n\t}\n\n\tfunction getCAByAddress(address CAAddress) public view returns (uint CAIndex) {\n\t\trequire(CAAddress != nullAddress);\n\t\tfor(uint i = 0; i < CAs.length; i++ ) {\n\t\t\tif(CAs[i] == CAAddress) {\n\t\t\t\treturn i;\n\t\t\t}\n\t\t}\n\t\treturn nullIndex;\n\t}\n\tfunction deleteCA(address CAAddress) public payable returns (uint CAIndex) {\n\t\tuint index = getCAByAddress(CAAddress);\n\t\tif(index != nullIndex) {\n\t\t\tfor(uint i = index + 1; i < CAs.length; i++) {\n\t\t\t\tCAs[i - 1] = CAs[i];\n\t\t\t}\n\t\t\tCAs[CAs.length - 1] = nullAddress;\n\t\t\tCAs.length--;\n\t\t}\n\t\treturn index;   // CA\n\t}\n\n\n\t//  null\n\tfunction createCertUser(string _username, string _identityId, string _certnumber, string _orgname, string _hashstr\n\t, address _useraddress, string _CA, address _CAAddress) public payable returns(string)  {\n\t\trequire(_useraddress != nullAddress);\n\t\trequire(_CAAddress != nullAddress);\n\t\tif(getCAByAddress(_CAAddress) == nullIndex) {\n\t\t\treturn \"invalid CA address, please add CA address to CAs first\";\n\t\t}\n\t\tuint index = _getUniqueCertUserPos(_identityId, _certnumber);\n\t\tif(index != nullIndex) {\n\t\t\treturn  \"add false, the CertUser has added before.\";\n\t\t}\n\t\tuint certUserIndex = certusers.push(CertUser({username:_username, identityId:_identityId, certnumber:_certnumber, orgname:_orgname\n\t\t\t, hashstr:_hashstr,useraddress: _useraddress, CA:_CA, CAAddress:_CAAddress, userstate:0, readyTime:now}));\n\t\tmapToCertUserIndex[_useraddress].push(certUserIndex);\n\t\tCreateCertUser(_useraddress, certUserIndex);\n\t\treturn \"add success\";\n\t}\n\n\t//\n\tfunction _getCertuses() public  view returns (CertUser[]) {\n\t\treturn certusers;\n\t}\n\n\t//\n\tfunction _getUniqueCertUserPos(string identityId, string certnumber) private view returns (uint) {\n\t\tCertUser[] memory allCertusers = _getCertuses();\n\t\tfor(uint i = 0; i < allCertusers.length; i++) {\n\t\t\tif(keccak256(allCertusers[i].identityId) == keccak256(identityId)\n\t\t\t&& keccak256(allCertusers[i].certnumber) == keccak256(certnumber)) {\n\t\t\t\treturn i;\n\t\t\t}\n\t\t}\n\t\treturn nullIndex;\n\t}\n\t//\n\tfunction getArrayIndex(address _useraddress) public  view returns (uint[] rtn) {\n\t\treturn  mapToCertUserIndex[_useraddress];\n\t}\n\n\t//  \n\tfunction getFirstCertUser(string identityId, string certnumber) public view returns\n\t(string username, string identityId1, string certnumber1, string orgname, string hashstr\n\t, address useraddress1, string CA, address CAAddress,uint32 userstate, uint32 readyTime) {\n\t\t//indexDeclarationError: Identifier already declared\n\n\t\tCertUser[] memory allCertusers = _getCertuses();\n\t\tuint index = _getUniqueCertUserPos(identityId, certnumber);\n\t\trequire(index != nullIndex);\n//\t\trequire(allCertusers[index].useraddress == msg.sender || allCertusers[index].CAAddress == msg.sender);\n\t\treturn (allCertusers[index].username, allCertusers[index].identityId, allCertusers[index].certnumber, allCertusers[index].orgname\n\t\t, allCertusers[index].hashstr, allCertusers[index].useraddress, allCertusers[index].CA, allCertusers[index].CAAddress\n\t\t, uint32(allCertusers[index].userstate), uint32(allCertusers[index].readyTime));\n\n\t}\n\n\tfunction getCertUserByAddressAndIndex(address certUserAddress, uint index) public view returns\n\t(string username, string identityId1, string certnumber1, string orgname, string hashstr\n\t, address useraddress1, string CA, address CAAddress,uint32 userstate, uint32 readyTime){\n\t\trequire(index != nullIndex);\n\t\tCertUser memory currentCertUser = _getCertuses()[index];\n\n\t\treturn (currentCertUser.username, currentCertUser.identityId, currentCertUser.certnumber, currentCertUser.orgname\n\t\t, currentCertUser.hashstr, currentCertUser.useraddress, currentCertUser.CA, currentCertUser.CAAddress\n\t\t, uint32(currentCertUser.userstate), uint32(currentCertUser.readyTime));\n\t}\n\n\t//\n\tfunction changeCertUserState(string identityId, string certnumber, uint state) public payable returns (bool isChanged) {\n\t\tCertUser storage certUser = certusers[_getUniqueCertUserPos(identityId, certnumber)];\n\t\trequire(certUser.userstate != state);\n\t\tif(certUser.userstate == 2 ) {\n\t\t\trequire(certUser.CAAddress == msg.sender);\n\t\t\tcertUser.userstate = state;\n\t\t} else {\n\t\t\t//require(_isReady(certUser));   //\n\t\t\tcertUser.userstate = state;\n\t\t}\n\n\t\t_triggerCooldown(certUser);\n\t}\n\n\n\t// \n\tfunction getAllCertUsers(address addr) public view returns (string) {\n\n\t\tuint[] memory arr = getArrayIndex(addr);\n\t\tif(arr.length == 0) return \"no CertUser exist!\";\n\t\tstring[] memory rst = new string[](arr.length);\n\t\tfor (uint i = 0; i < arr.length; i++) {\n\t\t\tCertUser memory cur = certusers[arr[i]];\n\t\t\tstring memory s0 = _stringMerge(cur.username,\"!\");\n\t\t\tstring memory s1 = _stringMerge(cur.identityId,\"!\");\n\t\t\tstring memory s2 =  _stringMerge(cur.certnumber,\"!\");\n\t\t\tstring memory s3 =  _stringMerge(cur.orgname,\"!\");\n\t\t\t// string memory s4 = cur.hashstr;\n\t\t\t//string memory s5 = string(cur.useraddress);\n\t\t\tstring memory s6 = _stringMerge(cur.CA,\"!\");\n\t\t\tstring memory s8;\n\t\t\t// string memory s7 = cur.CAAddress;\n\t\t\tif(cur.userstate == 0) {\n\t\t\t\ts8 = \"0???\";\n\t\t\t} else if(cur.userstate == 1) {\n\t\t\t\ts8 = \"1???\";\n\t\t\t} else {\n\t\t\t\ts8 = \"2???\";\n\t\t\t}\n\n\t\t\tstring[] memory inner = new string[](6);\n\t\t\tinner[0] = s0;\n\t\t\tinner[1] = s1;\n\t\t\tinner[2] = s2;\n\t\t\tinner[3] = s3;\n\t\t\tinner[6] = s6;\n\t\t\tinner[8] = s8;\n\n\t\t\tstring memory tmp = _stringArrayMerge(inner);\n\t\t\treturn tmp;\n\t\t\t//rst =_stringMerge(_stringMerge(rst,_stringMerge(_stringMerge(_stringMerge(_stringMerge(_stringMerge(s0,s1),s2),s3),s6),s8)),\"&\");\n\t\t}\n\n\t\treturn _stringArrayMerge(rst);\n\t}\n\n\t// sha3(s1) == sha3(s2) sha3(s1,s2) == sha3(s1,s2,s3,s4)\n\tfunction _stringEquals(string s1, string s2) private pure returns (bool istrue) {\n\t\tif(bytes(s1).length != bytes(s2).length) return false;\n\t\tfor(uint i = 0; i < bytes(s1).length; i++) {\n\t\t\tif(bytes(s1)[i] != bytes(s2)[i])\n\t\t\t\treturn false;\n\t\t}\n\t\treturn true;\n\t}\n\t// storagebytesstringpush()\n\t// 123  uint8  memorystorate\n\tfunction _stringMerge(string s1, string s2) private pure returns (string) {\n\t\t//byte8 fixedLengthBytesArray = 0x1122334455667788;\n\t\t//if(bytes(s1).length == 0) return s2;    == \n\t\t//if(bytes[s2].length == 0) return s1;\n\t\tbytes memory rtn = new bytes(bytes(s1).length + bytes(s2).length);\n\t\tfor(uint i = 0; i < bytes(s1).length; i++) {\n\t\t\trtn[i] = bytes(s1)[i];\n\t\t}\n\t\tfor(uint j = 0; j < bytes(s2).length; j++) {\n\t\t\trtn[bytes(s1).length + j] = bytes(s2)[j];\n\t\t}\n\t\treturn string(rtn);\n\t}\n\n\tfunction _stringArrayMerge(string[] memory arr)  private pure returns (string) {\n\t\tuint len = 0;\n\t\tuint curLen = 0;\n\t\tfor(uint i = 0; i < arr.length; i++) {\n\t\t\tlen += bytes(arr[i]).length;\n\t\t}\n\t\tbytes memory rtn = new bytes(len);\n\t\tfor(uint count = 0; count < len; count++) {\n\t\t\tfor(uint j = 0; j < bytes(arr[count]).length; j++) {\n\t\t\t\trtn[curLen + j] = bytes(arr[count])[j];\n\t\t\t}\n\t\t\tcurLen = bytes(arr[count]).length;\n\t\t}\n\t\treturn string(rtn);\n\t}\n\n\tfunction verifyCertUser(string identityId, string certnumber) public view returns (bool istrue) {\n\t\tfor(uint i = 0; i < certusers.length; i++) {\n\t\t\tif(_stringEquals(certusers[i].identityId,identityId) && _stringEquals(certusers[i].certnumber,certnumber)\n\t\t\t&& certusers[i].userstate == 0)\n\t\t\t\treturn true;\n\t\t}\n\n\t\treturn false;\n\t}\n\n\tfunction _triggerCooldown(CertUser storage certUser) internal {\n\t\tcertUser.readyTime = uint32(now + cooldownTime);\n\t}\n\n\tfunction _isReady(CertUser storage certUser) internal view returns (bool) {\n\t\treturn (certUser.readyTime <= now);\n\t}\n\n}\n",
  "sourcePath": "D:\\blockchaindev\\CertChain\\contracts\\MetaCoin.sol",
  "compiler": {
    "name": "solc",
    "version": "0.4.21+commit.dfe3193c.Emscripten.clang"
  },
  "schemaVersion": "2.0.0",
  "updatedAt": "2018-06-15T02:25:26.707Z"
}